:100000000C9435010C9466010C9466010C94660105
:100010000C9466010C9466010C9466010C946601C4
:100020000C9466010C9466010C9466010C946601B4
:100030000C9466010C9466010C9466010C946601A4
:100040000C9466010C9460080C9466010C94660193
:100050000C9466010C9466010C9466010C948C0758
:100060000C9466010C9466010C9466010C94660174
:100070000C9466010C9466010C9466010C94660164
:100080000C9432080C9466010C9466010C94660181
:100090000C9466010C9466010C9466010C94660144
:1000A0000C9466010C9466010C9404080C9466018F
:1000B0000C9466010C9466010C9466010C94D607AE
:1000C0000C9466010C9466010C9466010C94660114
:1000D0000C9466010C9466010C9466010C94660104
:1000E0000C9466010C9477020C94EF020C94FD02C0
:1000F0000C9465030C94D7020C94F9020C9412062C
:100100000C948C0A0C9434030C94E7020C9486072C
:100110000C94CC020C94D0020C94E1020C94C80212
:100120000C94DD020C9402030C9407030C94C2029D
:100130000C94EB020C9411060C94D4020C94A503BD
:100140000C9403030C94F502000021002400270006
:100150002A002D00300033000101000004010701D6
:100160000A0100002200250028002B002E0031008B
:10017000340002010000050108010B01000020000D
:100180002300260029002C002F003200000100006F
:10019000030106010901050505050705080808080A
:1001A000020202020A0A080804040404010101010F
:1001B000010101010303030303030303040707070A
:1001C0000C0C0C0C0C0C0C0C0202020206060606AF
:1001D000060606060B0B0B0B0B0B0B0B010210207C
:1001E000200808102040102040800201020108046D
:1001F0000201010204081020408080402010080401
:100200000201800402018040201008040201080459
:10021000020101020408102040800102040810209D
:10022000408000000A0B02090C0D0E0807030401B0
:1002300000000000000000000000000000000000BE
:10024000000000000000000000000000000012118B
:10025000100000000000000000000000000000008E
:1002600000000000000000008C0A11241FBECFEF28
:10027000D1E2DEBFCDBF00E00CBF12E0A0E0B2E0F3
:10028000E2E4F7E100E00BBF02C007900D92A63652
:10029000B107D9F723E0A6E6B2E001C01D92A73965
:1002A000B207E1F711E0C5E3D1E000E006C0219715
:1002B0000109802FFE010E948E0BC433D10780E01C
:1002C0000807A9F70E948E080C949F0B0C9400005D
:1002D000CF92DF92EF92FF92DC01A03282E0B8076A
:1002E000D4F5A53BB10514F0A4EBB0E040917D033B
:1002F00028E830E0241B310947FD3395220F331FD6
:10030000220F331F6901330FEE08FF0840917E036F
:1003100028E532E0241B310947FD3395220F331FB6
:10032000220F331F032E000C440B550B2C193D09D3
:100330004E095F09B7FF02C0B0E0A0E00E94490B80
:1003400024EB30E040E050E00E941F0BC20ED31EB1
:10035000E41EF51ED601E0917C03E03380F5209188
:100360007D0388E890E0821B910927FD9395880F13
:10037000991F880F991FA817B90784F020917E0351
:1003800088E592E0821B910927FD9395880F991FBC
:10039000880F991FA817B9070CF4CD010297880F91
:1003A000991F4FB7F8942E2F30E0F901EE0FFF1F81
:1003B000E20FF31FE451FD4F928381834FBFFF9003
:1003C000EF90DF90CF90089596E0899FD00111249F
:1003D000A358BD4F90967C936E935F9791E0919652
:1003E0009C939197E091EA02F091EB029091E902DF
:1003F000992339F0309751F0811108C0809199020A
:100400001994309719F05C968C91FACF0895CF9299
:10041000DF92EF92FF920F931F9396E0899FF00176
:100420001124E358FD4F11A2278D30A12130310551
:1004300051F178F02230310509F451C023303105F3
:1004400009F452C01F910F91FF90EF90DF90CF9071
:1004500008956623B9F361E070E00E94E4012FB7CC
:10046000F8948091790290917A02A0917B02B091E8
:100470007C022FBF8093D5029093D602A093D7021F
:10048000B093D802DFCF9FB7F894C0907902D09094
:100490007A02E0907B02F0907C029FBF0091D5022F
:1004A0001091D6022091D7023091D802C01AD10AF9
:1004B000E20AF30A0091E7021091E80230E020E03E
:1004C0000C151D052E053F0550F462E070E01F91EC
:1004D0000F91FF90EF90DF90CF900C94E4016111A9
:1004E000B1CF63E070E0F3CF70E060E0F0CFAF92A7
:1004F000BF92CF92DF92EF92FF920F931F93CF9311
:10050000DF936C017B018B01040F151FEB015E0172
:10051000AE18BF08C017D10759F06991D601ED9107
:10052000FC910190F081E02DC6011995892B79F796
:10053000C501DF91CF911F910F91FF90EF90DF9058
:10054000CF90BF90AF9008958150823108F05AC08B
:10055000E82FF0E08827E055FD4F8F4F0C948E0B6D
:10056000D002D402C202C802CC020203D702DD02CA
:10057000E102E702EB02EF02F502F9020203FD02DB
:1005800003030703809180008F7780938000089594
:10059000809180008F7DF9CF80918000877FF5CF9B
:1005A00084B58F7784BD089584B58F7DFBCF80910E
:1005B000B0008F778093B00008958091B0008F7D58
:1005C000F9CF809190008F7780939000089580916B
:1005D00090008F7DF9CF80919000877FF5CF80913B
:1005E000A0008F778093A00008958091A0008F7D58
:1005F000F9CF8091A000877FF5CF809120018F7780
:10060000809320010895809120018F7DF9CF809102
:100610002001877FF5CFCF93DF93282F30E0F901BA
:10062000EE5DFD4F8491F901E452FE4FD491F90142
:10063000EA56FE4FC491CC23A1F081110E94A4027E
:10064000EC2FF0E0EE0FFF1FE458FE4FA591B491A0
:10065000EC91ED2381E090E009F480E0DF91CF910F
:10066000089580E090E0FACF862F0C940B031F933F
:10067000CF93DF93282F30E0F901EE5DFD4F849199
:10068000F901E452FE4FD491F901EA56FE4FC491AC
:10069000CC23A9F0162F81110E94A402EC2FF0E0C8
:1006A000EE0FFF1FEE59FE4FA591B4918FB7F8944E
:1006B000EC91111108C0D095DE23DC938FBFDF9140
:1006C000CF911F910895DE2BF8CF862F642F0C94C5
:1006D0003703CF93DF9390E0FC01E452FE4F249167
:1006E0008A569E4FFC0184918823C9F090E0880FC0
:1006F000991FFC01E85BFE4FA591B491FC01EE59F6
:10070000FE4FC591D49161110DC09FB7F8948C91A3
:10071000209582238C938881282328839FBFDF9193
:10072000CF910895623051F49FB7F8943C91822F95
:10073000809583238C93E8812E2BEFCF8FB7F8948D
:10074000EC912E2B2C938FBFEACF862F642F0C9425
:1007500069036F927F928F929F92AF92BF92CF92D6
:10076000DF92EF92FF920F931F93CF93DF9381E07D
:100770008093E9028FB7F8944091790250917A0200
:1007800060917B0270917C028FBF8091D902909121
:10079000DA02A091DB02B091DC02481B590B6A0B14
:1007A0007B0B8091E5029091E602B0E0A0E0841717
:1007B0009507A607B70708F01DC1C0E08091E302C6
:1007C000C81760F4E091DF02F091E002EC0FF11D38
:1007D00062E080810E946903CF5FF0CF712C812C91
:1007E000912C540183948091E402781608F05FC044
:1007F000072D10E0E091E102F091E202E00FF11F1D
:1008000061E080810E946903E091E102F091E202DF
:10081000E00FF11F60E080810E943703D501C40121
:10082000072C04C0880F991FAA1FBB1F0A94D2F778
:100830006C017C01E094F094612C8091E3026816D5
:10084000F8F4C62DD0E0E091DF02F091E002EC0F69
:10085000FD1F80810E940B032496CC0FDD1FC3581F
:10086000DD4F892B41F4888199818C299D299983B9
:1008700088836394E2CF888199818E219F21F7CF6D
:10088000E091E102F091E202E00FF11F61E080816E
:100890000E9437038091E1029091E202080F191F34
:1008A00060E0F80180810E94690373949CCFCDE7DA
:1008B000D2E0FE018FEF9FEF278D30A1232B21F493
:1008C000148E968F858F11A2369622E0E93BF207AF
:1008D00099F7F12C96E0D92E8091E302F81608F0F2
:1008E00050C0E12C0F2D10E0000F111F0B571D4FB2
:1008F0002091E402E21608F042C0F80160817181A3
:100900000E2C02C0769567950A94E2F7F29E90014C
:1009100011242E0D311DEDE7F2E080E0458D568D5E
:100920002417350709F46AC08F5F36968A30B1F70D
:1009300060FF23C0EDE7F2E090E080E0448D4111DC
:1009400017C0E091DD02F091DE02E20FF31F40815B
:10095000D89EF001D99EF00D1124E358FD4F448F2D
:10096000368F258F10A2178E61E00E94070205C006
:10097000019636968A30910509F7E394B9CFF3943E
:10098000ABCF80E099A19111892F2696F2E0C93B67
:10099000DF07C1F79FB7F8944091790250917A022E
:1009A00060917B0270917C029FBF4093D90250936B
:1009B000DA026093DB027093DC028823D9F0809125
:1009C0009E028823B9F080919C0290919D0201972C
:1009D00089F480919902DF91CF911F910F91FF903F
:1009E000EF90DF90CF90BF90AF909F908F907F90CF
:1009F0006F9008951092E90280E0EDCF6170B5CF5D
:100A00003FB7F89480916C0290916D02A0916E02B4
:100A1000B0916F0226B5A89B05C02F3F19F0019633
:100A2000A11DB11D3FBFBA2FA92F982F8827BC0148
:100A3000CD01620F711D811D911D42E0660F771F70
:100A4000881F991F4A95D1F708958F929F92AF9270
:100A5000BF92CF92DF92EF92FF924B015C010E9416
:100A600000056B017C010E9400056C197D098E094F
:100A70009F09683E734081059105A8F321E0821A21
:100A80009108A108B10888EEC80E83E0D81EE11CC9
:100A9000F11C81149104A104B10429F7FF90EF9097
:100AA000DF90CF90BF90AF909F908F900895AF92BE
:100AB000BF92CF92DF92EF92FF920F931F93CF934B
:100AC000DF936B017A01EC01C959DD4F28813CE0CD
:100AD000389F8001399F100D1124A0906602B12C1F
:100AE00027FF1FC0FB011182108288818F5F8883DE
:100AF00088819801280F311D87FD3A95F6012A1546
:100B00003B051CF488818C30C4F18081918104966E
:100B100080349C4908F473C0F60180819181049669
:100B200070C088819801280F311D87FD3A952A15DC
:100B30003B05DCF68881A801480F511D87FD5A95B9
:100B4000FA01EE0FFF1FE40FF51FE451FD4F808106
:100B500086FFCBCF8881F801E80FF11D87FDFA955C
:100B6000CF01EE0FFF1FE80FF91FE451FD4F808109
:100B700060E08F730E943703B8CF80819181288114
:100B8000A801420F511D27FD5A959A01FA01EE0F57
:100B9000FF1FE20FF31FE451FD4F21813281820FCD
:100BA000931FF7019183808388819801280F311D5D
:100BB00087FD3A95F901EE0FFF1FE20FF31FE45195
:100BC000FD4F808186FF22C08881080F111D87FD9F
:100BD0001A95F801EE0FFF1FE00FF11FE451FD4FD2
:100BE000808161E08F73DF91CF911F910F91FF9012
:100BF000EF90DF90CF90BF90AF900C94370380E4DC
:100C00009CE9F701918380838FEF8883DF91CF91F7
:100C10001F910F91FF90EF90DF90CF90BF90AF901A
:100C20000895089590E080E00895CF93DF931092A7
:100C3000710210927002C0917002D0917102C53B96
:100C4000D1057CF4CE010E9468016FE070E080E085
:100C500090E00E9425052596D0937102C093700202
:100C6000EACFDF91CF910895FC0101900020E9F7D0
:100C70003197AF01481B590BBC018FE793E00C94EF
:100C80007702CF93DF93EC0160E08E810E943703FF
:100C900061E08E810E94370360E08E810E943703FD
:100CA0008BE891E00197F1F7DF91CF910895CF9212
:100CB000DF92EF92FF920F931F93CF93DF936C011C
:100CC0007C0187E0E80EF11CD0E0C0E0062F10E0C8
:100CD000B8010C2E02C0759567950A94E2F7617011
:100CE000F70181917F010E9437032196C430D1051D
:100CF00079F7C601DF91CF911F910F91FF90EF908F
:100D0000DF90CF900C944106CF92DF92EF92FF924A
:100D10000F931F93CF93DF93EC01F62E642F8C81FA
:100D20000E9437038D818F3F19F060E00E943703E6
:100D30000F2D10E08F8584FF25C06E0187E0C80E5F
:100D4000D11CF12CE12CB8010E2C02C075956795D1
:100D50000A94E2F76170F60181916F010E943703F6
:100D6000FFEFEF1AFF0A88E0E816F10461F7CE0101
:100D7000DF91CF911F910F91FF90EF90DF90CF9077
:100D80000C944106B80184E0759567958A95E1F762
:100D9000CE010E9457066F2DCE01DF91CF911F919A
:100DA0000F91FF90EF90DF90CF900C94570640E0AA
:100DB000682F8FE793E00C94840681E00E94D706A9
:100DC0008BE39FE10197F1F70895CF93DF93823092
:100DD00029F490918E03986090938E0380939203F0
:100DE0001092930380E48093940380E180939503B1
:100DF00080E58093960361E0809183030E946903FC
:100E0000809184038F3F19F061E00E94690361E0E3
:100E1000809185030E946903CFE7D3E09E012F579D
:100E2000334080918E0384FD0BC084E090E02196D6
:100E30002817390744F461E08E810E946903EECFE0
:100E400088E090E0F4CF8BE39DE00197F1F760E05C
:100E5000809183030E94370360E0809185030E94A4
:100E60003703809184038F3F19F060E00E943703BD
:100E700080918E0384FD34C063E08FE793E00E948D
:100E80005706CBE4D6E4CE010197F1F763E08FE794
:100E900093E00E9457062197F1F763E08FE793E014
:100EA0000E94570683E592E00197F1F762E08FE731
:100EB00093E00E94570680918E0380620E94D706BD
:100EC00084E080938F038CE00E94D7060E94DD06A9
:100ED00082E08093900386E0DF91CF910C94D70657
:100EE00080620E94D7068BE496E40197F1F7809127
:100EF0008E0380620E94D70683E592E00197F1F7A6
:100F000080918E0380620E94D706D5CF41E00E9477
:100F1000840681E090E008951F920F920FB60F9221
:100F200011242F933F938F939F93AF93BF938091FF
:100F3000790290917A02A0917B02B0917C0230916B
:100F40006B0223E0230F2D3758F50196A11DB11D2B
:100F500020936B028093790290937A02A0937B0294
:100F6000B0937C0280916C0290916D02A0916E0210
:100F7000B0916F020196A11DB11D80936C029093F8
:100F80006D02A0936E02B0936F02BF91AF919F91DB
:100F90008F913F912F910F900FBE0F901F9018953A
:100FA00026E8230F0296A11DB11DD2CF1F920F92EA
:100FB0000FB60F9211240BB60F922F933F934F93BE
:100FC0005F936F937F938F939F93AF93BF93EF93B1
:100FD000FF9348E251E064E271E090E080E00E941B
:100FE0005705FF91EF91BF91AF919F918F917F91A5
:100FF0006F915F914F913F912F910F900BBE0F908A
:101000000FBE0F901F9018951F920F920FB60F9260
:1010100011240BB60F922F933F934F935F936F93CF
:101020007F938F939F93AF93BF93EF93FF9348EA80
:1010300050E064EA70E083E090E00E945705FF9181
:10104000EF91BF91AF919F918F917F916F915F9140
:101050004F913F912F910F900BBE0F900FBE0F90AD
:101060001F9018951F920F920FB60F9211240BB676
:101070000F922F933F934F935F936F937F938F9331
:101080009F93AF93BF93EF93FF9348E950E064E9D8
:1010900070E082E090E00E945705FF91EF91BF91D0
:1010A000AF919F918F917F916F915F914F913F9100
:1010B0002F910F900BBE0F900FBE0F901F901895A1
:1010C0001F920F920FB60F9211240BB60F922F930F
:1010D0003F934F935F936F937F938F939F93AF93C0
:1010E000BF93EF93FF9348E850E064E870E081E03D
:1010F00090E00E945705FF91EF91BF91AF919F91B2
:101100008F917F916F915F914F913F912F910F90B0
:101110000BBE0F900FBE0F901F901895789484B55A
:10112000826084BD84B5816084BD85B5826085BDE3
:1011300085B5816085BD80916E00816080936E0071
:101140001092810080918100826080938100809163
:101150008100816080938100809180008160809314
:1011600080008091B10084608093B1008091B000D4
:1011700081608093B00080919100826080939100A3
:1011800080919100816080939100809190008160B6
:10119000809390008091A10082608093A100809153
:1011A000A10081608093A1008091A0008160809364
:1011B000A000809121018260809321018091210112
:1011C00081608093210180912001816080932001C2
:1011D00080917A00846080937A0080917A008260A6
:1011E00080937A0080917A00816080937A00809168
:1011F0007A00806880937A001092C10060E08BE0F2
:101200000E94690361E08CE00E94690361E08DE364
:101210000E94690380917C03803308F052C061E032
:1012200082E00E94690380917C03282F30E0F9015D
:10123000EE0FFF1FE20FF31FE451FD4F9081907CF2
:101240009260908310927D0310927E032CE0622FB7
:101250000E94820B829FB001112430E020E0AB019C
:10126000420F531FFA01EE0FFF1FE40FF51FE45169
:10127000FD4F908196FD17C02F5F3F4F2C303105F9
:1012800071F7813009F054C01092800082E08093A1
:1012900081001092850010928400B19A80916F00B5
:1012A000826080936F00E0917C038E2F90E0FC01C0
:1012B000EE0FFF1FE80FF91FE451FD4F808180649E
:1012C00080830E94150682E00E94E506E091920369
:1012D000E23008F059C0E150F0E0E158FC4F848959
:1012E00080680E94D70661E086E30E946903C0E03F
:1012F000D0E0DD24D39480911802811147C00E9470
:10130000A903833281F40E94DD060E9415068FE254
:1013100092E00E94340668EB7BE080E090E00E945F
:101320002505D0921802209731F30E940000E3CFE8
:10133000823061F410929000809391001092950099
:101340001092940088BB80937100ADCF833069F414
:101350001092A00082E08093A1001092A50010924C
:10136000A40089BB809372009ECF81119CCF109204
:10137000200182E080932101109225011092240126
:101380008ABB809373008FCFE1E0A6CFE1E080912C
:1013900092038111E0E0E195F0E0E158FC4F84898F
:1013A00080680E94D7068EE392E00E9434060E9475
:1013B000A903882321F1E0907702F0907802870159
:1013C0000E581D4FF8018083E0919203E230F0F552
:1013D000E150F0E0E158FC4F84898E0D80680E9456
:1013E000D70641E0F80160818FE793E00E94840610
:1013F000FFEFEF1AFF0AF0927802E09277028091F5
:10140000770290917802049709F08DCF63E172E042
:1014100082E792E00E94960B892B09F058C00E9447
:10142000DD0684EB90E09093710280937002C0918E
:101430007002D0917102D7FD0BC0CE010E946801ED
:101440002597D0937102C0937002F1CFE1E0C1CF34
:101450008EE492E00E9434061092180261E08DE35F
:101460000E943703C1E48BE00E940B03019751F502
:1014700061E08CE00E94370368EE73E080E090E06A
:101480000E94250580917B00877F80937B00C0931D
:101490007C0080917A00806480937A0080917A0049
:1014A00086FDFCCF9091780080917900892798275C
:1014B000892761E0853F91400CF460E086E30E945B
:1014C0003703D1CF60E08CE00E943703DBCF0E946E
:1014D000DD0686E592E00E94340668EE73E080E067
:1014E00090E00E942505D092180260E08DE30E94F2
:1014F0003703E0917702F0917802EE58FD4F82E7D2
:1015000092E08E179F0719F010823197FACF109250
:1015100078021092770207CF80916602803308F03C
:101520008AC091E0980F9093660280937C0390E0CC
:10153000FC01EE0FFF1FE80FF91FE451FD4F88EB90
:101540009BE092838183109282031092810387E251
:1015500092E09093800380937F038EE380938303D4
:101560008FEF809384038FE38093850380E48093DF
:10157000860381E48093870382E48093880383E475
:101580008093890310928A0310928B0310928C032C
:1015900010928D0310928E0381E00E94E506109256
:1015A0007F021092830210928202109284028DE1D7
:1015B00092E090937E0280937D02E9E9F2E010824E
:1015C000148213821582369682E0E53DF807B9F75A
:1015D00083E092E09093E0028093DF0280E092E06B
:1015E0009093E2028093E10284E08093E30283E03F
:1015F0008093E40287E092E09093DE028093DD0224
:101600008AE090E09093E6028093E50284EF91E017
:101610009093E8028093E7021092EB021092EA02A4
:101620001092D9021092DA021092DB021092DC02C0
:101630001092E90208958FEF80937C0384CF052EEA
:1016400097FB1EF400940E94360B57FD07D00E94B2
:10165000510B07FC03D04EF40C94360B509540957B
:10166000309521953F4F4F4F5F4F0895909580954E
:10167000709561957F4F8F4F9F4F08950E94730B18
:10168000A59F900DB49F900DA49F800D911D1124D6
:101690000895B7FF0C943E0B0E943E0B821B930BE8
:1016A0000895A1E21A2EAA1BBB1BFD010DC0AA1FA3
:1016B000BB1FEE1FFF1FA217B307E407F50720F0BB
:1016C000A21BB30BE40BF50B661F771F881F991F36
:1016D0001A9469F760957095809590959B01AC017F
:1016E000BD01CF010895A29FB001B39FC001A39F88
:1016F000700D811D1124911DB29F700D811D11244B
:10170000911D0895991B79E004C0991F961708F060
:10171000961B881F7A95C9F780950895EE0FFF1FD5
:10172000881F8BBF0790F691E02D1994FB01DC0117
:101730008D91019080190110D9F3990B0895F894B7
:02174000FFCFD9
:1017420011100F151413123132333435363738393C
:101752002A302332303232000100000000A5036536
:1017620003340300000000860777021206110644C4
:101772006F6F7220697320636C6F7365640020451C
:101782006E7465722050617373776F72640057458F
:101792004C434F4D450057726F6E67205061737313
:0617A200776F7264000085
:00000001FF
